:1018000028C046C05FC044C043C042C041C040C0C1
:101810003FC03EC03DC03CC03BC03AC039C00902D9
:1018200012000101008032090400000000000000E5
:1018300012011001FF000008D01653070A0101022F
:1018400000010603B500420006034D004E000403EC
:10185000090411241FBECFE5D2E0DEBFCDBF00EBEF
:101860000F9307E00F9310E0A0E6B0E0E8EEFFE191
:1018700002C005900D92A636B107D9F720E0A6E682
:10188000B0E001C01D92AB39B207E1F7F0D1AAC3B5
:10189000B7CFA82FB92F80E090E041E050EA6095E3
:1018A00030E009C02D9182279795879510F0842705
:1018B0009527305EC8F36F5FA8F30895EADF8D9334
:1018C0009D930895CF93CFB7CF93C0915F02C03B54
:1018D00021F4C0915E02C73021F0CF91CFBFCF91EC
:1018E0008ECFCC27C395B39BE9F7B39B0BC0B39BBB
:1018F00009C0B39B07C0B39B05C0B39B03C0B39B98
:1019000001C0D3C00F92DF93C0917E00DD27CB577B
:10191000DF4F012EB39B03C0DF910F90E6CF2F93D3
:101920000F931F934F932FEF4F6F06B303FB20F9D5
:101930005F933F9350E03BE065C016B3012650290A
:1019400053FDC89556B3012703FB25F92F7306B342
:10195000B1F05027102713FB26F906B22230F0F021
:1019600000C016B3012703FB27F90126502906B250
:101970002430E8F54F77206816B30000F6CF5027E3
:101980004F7D206206B2102F000000C006B3002673
:101990005029102713FB26F906B2E2CF4F7B06B37E
:1019A000206400C0DACF01265029187106B269F10F
:1019B0004E7F2160012F16B328C0002650294D7F8D
:1019C00006B22260102F29C0012650294B7F06B293
:1019D0002460012F2DC016B301265029477F2860AF
:1019E000000006B22EC04F7E06B3206130C04227F1
:1019F00006B3499300265029102706B24FEF13FB78
:101A000020F9297F16B379F2187159F1012650296E
:101A100006B2012703FB21F9237F06B371F20026EA
:101A200050293150D0F006B2102713FB22F9277E3F
:101A300016B351F201265029012703FB06B223F900
:101A40002F7C49F2000006B3102713FB24F900266F
:101A5000502906B22F7939F270CF10E21ABF002751
:101A600017C03B503195C31BD04010E21ABF08810C
:101A7000033CF9F00B34E9F020917C001981110F3F
:101A80001213EDCF093651F10D3211F0013E39F745
:101A9000009383003F915F914F911F910F912F9180
:101AA000DF910F90CAB7C5FD1DCFCF91CFBFCF91AA
:101AB000189520918300222369F31091810011234E
:101AC00021F5343022F13093810020937D00109174
:101AD0007E003BE0311B30937E0019C000918100F5
:101AE00001309CF40AE53091600034FD11C0009390
:101AF0006000C1E7D0E010C0052710E000C021C0A1
:101B0000052710E0C89508BB14C03AE501C032EDC6
:101B1000032EC0E0D0E032E017B31861C39A08B3D7
:101B200017BB58E120E84FEF20FF052708BB27959A
:101B300017951C3F28F700004552B0F720FF0527F6
:101B4000279508BB17951C3FB8F629913A9561F780
:101B5000077E10918200110F08BBC250D04011F0D7
:101B600010937C0010E21ABF086017B3177E402F55
:101B7000477E54E05A95F1F708BB17BB48BB8ACFA4
:101B8000F8942FEFB0E8A0E44AE0B1BF000081EE86
:101B90009CE0B399FECFB39BFECF0197B399FDCFE5
:101BA00097FF03C0BA1B819501C0BA0FA69529F40F
:101BB000281710F031B7282FA1E0415031F731BF7D
:101BC0000000789408958FB7F894E0916900F0913F
:101BD0006A00329795E090935700E8958FBF08957B
:101BE0002091690030916A002115310589F1243076
:101BF000310591F12C3F47E1340739F480916B00B6
:101C000090916C008E5F9B4F10C02E3F47E13407D0
:101C100039F480916D0090916E008D5F9B4F05C0EF
:101C20002A3F374111F481B790E02FB7F894E09143
:101C30006900F0916A0031E00C0130935700E8959B
:101C400011242FBF3296F0936A00E0936900089543
:101C500081E180935700E8958FEF9BECE6CF8FEF03
:101C60009FEFBEDF809169008F73C9F7ACCF2EE084
:101C700088E190E00FB6F894A89581BD0FBE21BD14
:101C8000E1E0F0E0E491EF3F09F4E9DF10926A004F
:101C900010926900BB9A88EB9BE0ECE9F1E0319788
:101CA000F1F70197D1F7BB98AC9A8BB780628BBFE5
:101CB000789400918100035007FDDEC080917E0082
:101CC000CCE0D0E0C81BD109CB57DF4F80917D001D
:101CD0008D3209F09FC0083009F0CCC083EC8093AE
:101CE00071008AE58093600010926F002881922F26
:101CF00090768981992329F11092670010926600ED
:101D0000811108C082E690E09093800080937F006C
:101D100014E076C0813051F48C819D8190936A00EB
:101D20008093690027FD67C01FEF66C0909168002F
:101D3000823011F4916001C094609093680010E0CB
:101D40005FC09A8110927A00811106C010927B00C8
:101D50008AE790E012E04AC0853019F4909382003F
:101D60003BC0863081F58B81813019F480E398E1A6
:101D700004C0823041F48EE198E19093800080931A
:101D80007F0012E11CC08330C9F4911108C08EE4B9
:101D900098E19093800080937F0014E010C0913010
:101DA00019F488E498E104C0923041F482E498E1A7
:101DB0009093800080937F0016E001C010E080E4E3
:101DC00080936F001DC0883059F0893019F49093CA
:101DD000840002C08A3039F08AE790E010E006C043
:101DE00084E890E002C08AE790E011E090938000E0
:101DF00080937F0005C01E8180E880936F0007C03C
:101E00008F81811104C08E81811708F4182F1093DF
:101E1000610030C080916F0087FF2CC08091690005
:101E200090916A00009739F48881998190936C00B1
:101E300080936B0012C08430910539F488819981B8
:101E400090936E0080936D0008C08115984128F032
:101E5000809169008F7339F00DC089919991C0DE2E
:101E60000250E1F6F5CF80916800826080936800AF
:101E700010926100109281008091600084FF43C045
:101E8000809161008F3F09F43EC0082F893008F02F
:101E900008E0801B809361008091710098E8892799
:101EA00080937100002319F1E0917F00F091800090
:101EB00080916F0086FF0BC0A2E7B0E084918D9304
:101EC000319682E790E0800F8A13F8CF0CC0CF01E3
:101ED000A2E7B0E0FC012191CF012D9322E730E091
:101EE000200F2A13F7CFF0938000E0937F00602F3C
:101EF00082E790E0E3DC0C5F0C3019F08FEF809309
:101F000061000093600084E196B3987131F48150D0
:101F1000D9F71092820010927C0001E0811100E05C
:101F200080917000801739F0011103C01092670092
:101F300027DE00937000A8958CE991E00197F1F7F6
:101F40008091680080FF11C0F894E0E0F8E1E0546F
:101F5000F10983E080935700E8953097C1F710921C
:101F60006A00109269007BDE78940091680001FF9E
:101F70000BC08AE390E20197F1F7809169008F73BB
:101F800011F06DDE01C01FDE02FF18C082E291EA8F
:101F90000197F1F7F894BB9A88E10FB6F89481BDE8
:101FA00011BC0FBE1BBE15BA10925F02EAEFF7E13B
:101FB000E4918E2F81508E3F88F012C010926800FD
:101FC00080916600909167000196909367008093DE
:101FD000660080369A4E08F46CCED8CFE1BF000080
:081FE0000DCC0ECFF894FFCFE9
:061FE8005AFF17FA400841
:0400000300001800E1
:00000001FF
