:0800000077CC76CCACCC74CCBB
:1018C00017C016C04CC014C00902120001010080EC
:1018D0003209040000000000000012011001FF00A6
:1018E0000008D01653070B0100000001040309048F
:1018F00011241FBECFE5D2E0CDBFDEBF00EB0F93BA
:1019000007E00F9310E0A0E6B0E0E2EEFFE102C0D6
:1019100005900D92A636B107D9F720E0A6E6B0E013
:1019200001C01D92A639B207E1F7E2C1A82FB92F75
:1019300080E090E041E050EA609530E009C02D91F0
:1019400082279795879510F084279527305EC8F3F6
:101950006F5FA8F30895EADF8D939D930895CF9369
:10196000CFB7CF93C0915F02C03B21F4C0915E021C
:10197000C73021F0CF91CFBFCF91A1CFCC27C39556
:10198000B39BE9F7B39B0BC0B39B09C0B39B07C0E4
:10199000B39B05C0B39B03C0B39B01C0D3C00F92E0
:1019A000DF93C0917900DD27C058DF4F012EB39B34
:1019B00003C0DF910F90E6CF2F930F931F934F93A8
:1019C0002FEF4F6F06B303FB20F95F933F9350E077
:1019D0003BE065C016B30126502953FDC89556B3A8
:1019E000012703FB25F92F7306B3B1F05027102709
:1019F00013FB26F906B22230F0F000C016B301271F
:101A000003FB27F90126502906B22430E8F54F7769
:101A1000206816B30000F6CF50274F7D206206B233
:101A2000102F000000C006B300265029102713FB1A
:101A300026F906B2E2CF4F7B06B3206400C0DACFAE
:101A400001265029187106B269F14E7F2160012FDD
:101A500016B328C0002650294D7F06B22260102FF1
:101A600029C0012650294B7F06B22460012F2DC0CA
:101A700016B301265029477F2860000006B22EC009
:101A80004F7E06B3206130C0422706B3499300263B
:101A90005029102706B24FEF13FB20F9297F16B308
:101AA00079F2187159F10126502906B2012703FB7A
:101AB00021F9237F06B371F2002650293150D0F06E
:101AC00006B2102713FB22F9277E16B351F2012626
:101AD0005029012703FB06B223F92F7C49F20000AD
:101AE00006B3102713FB24F90026502906B22F79DC
:101AF00039F270CF10E21ABF002717C03B50319562
:101B0000C31BD04010E21ABF0881033CF9F00B342C
:101B1000E9F0209177001981110F1213EDCF0936EA
:101B200051F10D3211F0013E39F700937E003F91E3
:101B30005F914F911F910F912F91DF910F90CAB735
:101B4000C5FD1DCFCF91CFBFCF91189520917E00BD
:101B5000222369F310917C00112321F5343022F106
:101B600030937C0020937800109179003BE0311B8A
:101B70003093790019C000917C0001309CF40AE593
:101B80003091600034FD11C000936000CCE6D0E0DD
:101B900010C0052710E000C021C0052710E0C8953F
:101BA00008BB14C03AE501C032ED032EC0E0D0E01E
:101BB00032E017B31861C39A08B317BB58E120E8A5
:101BC0004FEF20FF052708BB279517951C3F28F7E7
:101BD00000004552B0F720FF0527279508BB179551
:101BE0001C3FB8F629913A9561F7077E10917D0068
:101BF000110F08BBC250D04011F01093770010E2D3
:101C00001ABF086017B3177E402F477E54E05A95DD
:101C1000F1F708BB17BB48BB8ACFF8942FEFB0E8A9
:101C2000A0E44AE0B1BF000081EE9CE0B399FECF92
:101C3000B39BFECF0197B399FDCF97FF03C0BA1BAB
:101C4000819501C0BA0FA69529F4281710F031B775
:101C5000282FA1E0415031F731BF0000789408955A
:101C6000F894F201329785E080935700E8957894D4
:101C70000895F201309729F49093680080936700EB
:101C800007C0E430F10539F490936A00809369004D
:101C90008FE59CEC1FC02CEB421628E1520639F46C
:101CA00080916700909168008E559C4F13C02EEB79
:101CB000421628E1520639F48091690090916A0039
:101CC0008D559C4F07C02AEB421628E1520611F4AD
:101CD00081B790E02FB7F89431E00C0130935700B2
:101CE000E89511242F0182E0480E511C2FBF089562
:101CF00014BE88E181BD87E081BDBB9A88E893E18D
:101D0000ECE9F1E03197F1F70197D1F7BB98AC9A84
:101D10008BB780628BBF7894C198712C8CE991E06D
:101D20000197F1F7A895312C60917C00162F135084
:101D300017FDB2C080917900CCE0D0E0C81BD1097A
:101D4000C058DF4F6150CE01F1DD8E3F9F4409F056
:101D5000A1C0809178008D3209F085C0183009F05B
:101D600099C083EC80936C008AE5809360001092A8
:101D700066009881292F207689812223D1F0712C49
:101D8000811108C082E690E090937B0080937A00F6
:101D900024E05FC0813051F481E180935700E895E1
:101DA0004C805D8097FD50C02FEF4FC0382E20E053
:101DB00050C09A8110927500811106C01092760071
:101DC00085E790E022E03BC0853019F490937D00D8
:101DD0002CC0863009F58B81813019F48AED98E1A9
:101DE00004C0823041F488EC98E190937B008093AA
:101DF0007A0022E10DC0833051F4911108C08CEEBD
:101E000098E190937B0080937A0024E001C020E069
:101E100080E4809366001DC0883059F0893019F441
:101E200090937F0002C08A3039F085E790E020E08F
:101E300006C08FE790E002C085E790E021E0909334
:101E40007B0080937A0005C02E8180E88093660035
:101E500007C08F81811104C08E81821708F4282F5A
:101E60002093610017C08091660087FF13C080EC4B
:101E7000481688E1580620F0842D8F7339F00AC087
:101E800089919991F6DE125091F7F6CF95E0392EAF
:101E90001092610010927C008091600084FF42C02B
:101EA000809161008F3F09F43DC0182F893008F000
:101EB00018E0811B8093610080916C0098E889276D
:101EC00080936C00112311F1E0917A00F0917B0076
:101ED0008091660086FF0BC0ADE6B0E084918D93E3
:101EE00031968DE690E0810F8A13F8CF0BC0EF0199
:101EF000ADE6B0E089918D93FE018DE690E0810F13
:101F00008A13F8CFF0937B00E0937A00612F8DE67F
:101F100090E021DD1C5F1C3019F08FEF8093610091
:101F20001093600084E196B3987131F48150D9F731
:101F300010927D0010927700C1E08111C0E0809185
:101F40006B008C1729F0C11101C067DEC0936B00D4
:101F5000C30101963C018035934C11F484E0382E86
:101F6000872D8D7011F0B99801C0B99A232D3320B7
:101F7000E9F08AE390E20197F1F72230A9F4F894AE
:101F8000E0ECF8E1E054F10983E080935700E89534
:101F90003097C1F7412C512CC8E08FEF9FEF69DEDD
:101FA000C150D9F75DDE02C02530E1F384E038127C
:101FB000B5CEEDEBF8E1E491EF3F09F4AFCEB9987F
:101FC000F894BB9A1BBE15BA10925F02EAEBF8E1D7
:101FD000E4918E2F81508E3F10F4E1BF00006ECC53
:021FE000FFCF31
:061FE2005AFF18BA400886
:04000003000018C021
:00000001FF
