:103A000018C0000039FA80059487090212000101EC
:103A100000803209040000000000000012011001C3
:103A2000FF000008D0165307030200000001040342
:103A3000090411241FBECEEFD2E0CDBFDEBF21E0CE
:103A4000A0E0B1E001C01D92AC32B207E1F765C160
:103A5000A82FB92F80E090E041E050EA609530E077
:103A600009C02D9182279795879510F08427952777
:103A7000305EC8F36F5FA8F30895EADF8D939D93DE
:103A80000895CF93CFB7CF93DF93C3951B9BE9F7EF
:103A90001B9B0BC01B9B09C01B9B07C01B9B05C02E
:103AA0001B9B03C01B9B01C08FC06F93C0910E0175
:103AB000DD27CA5EDE4F2F9365E51B9B03C02F9168
:103AC0006F91E6CF0F931F934F9320E040E15F93F8
:103AD00003B1087403FB27F93F9350E03BE039C082
:103AE000187440642F77012F5F5F1EC0406813B1C8
:103AF00018742F7752501FC0406403B12F77087499
:103B0000D1F15F5F00C023C0406213B12F771874FA
:103B100091F15F5F00C025C008741027515012F466
:103B20005D5F0000115027952C3F13B1C8F6187443
:103B30000127015027952C3FC8F64227499303B12E
:103B4000087410274F73115027952C3FA8F64695FF
:103B5000469513B1187479F00127015027952C3F31
:103B600098F66B5A60F3315003B1B0F600C012E022
:103B70001BBB00271DC03B503195C31BD04012E03A
:103B80001BBB0881033C29F10B3419F120910C0176
:103B90001981110F1213EDCF093651F10D3211F0C9
:103BA000013E39F7CAE01BB311FD02C0CA95D9F72F
:103BB000009314013F915F914F911F910F912F91AD
:103BC0006F91CBB3C1FD61CFDF91CF91CFBFCF91CB
:103BD000089520911401222369F3109112011123F9
:103BE00009F534300AF13093120120930D011CC005
:103BF000009112010130B4F40AE530910F0134FD57
:103C000014C000930F01C1E0D1E013C0052710E0FC
:103C100000C0000005B91AC0052710E0221F1DC012
:103C200010E021C04AE502C032ED432FC4E1D0E0EC
:103C300032E014B118642B9A05B114B958E420E8A5
:103C400065E320FF052705B9279517951C3FF0F67A
:103C50006695B8F7B1F720FF052705B927951795A1
:103C60001C3FD0F62795179517FF052700001C3F2E
:103C700005B9B0F629913A9519F7077B1091130110
:103C8000110FC651D04005B911F010930C0112E08C
:103C90001BBB086014B1177B402F477B54E05A953B
:103CA000F1F705B914B945B985CFF201309731F074
:103CB000E230F10529F480E09DE102C08CE094E956
:103CC00021E00C0120935700E8951124CF010296C2
:103CD0002C01089514BEE0E6F0E088E1808387E0DF
:103CE0008083239A2FEF85EA9EE021508040904008
:103CF000E1F700C0000023988AE580930F018FEF61
:103D000080930001ECE6F0E0808180648083E8E647
:103D1000F0E08081826080830895DCDF82E084B9F6
:103D2000712C312C412C512C84E6C5EDD4E193B19A
:103D3000987409F084E6815021F4109213011092D6
:103D40000C01D99B05C09DDE82E08BBB712C03C0AA
:103D50002197209761F7A89522E032120CC0E0E08D
:103D6000FAE3E058F10983E080935700E895309733
:103D7000C1F7412C512C832D803459F4F201329734
:103D8000E1158AE3F80750F485E080935700E89541
:103D900005C0843019F4CD2B11F4F1C0312C809181
:103DA0001201835087FD9BC090910D019D3209F057
:103DB00094C0883009F091C083EC809301018AE5BA
:103DC00080930F01909117019076809118019923AB
:103DD00079F1811108C084E09AE3909311018093F6
:103DE000100126E06FC0813071F44114510409F4D0
:103DF0004FC080911B018078482E50901C0181E1BA
:103E000087BFE89545C0833081F480911901909176
:103E10001A014BDF80911B0190911C0146DF842D1C
:103E20008F77B1F580E4382E33C08F73382E30C0D1
:103E30009091190110920A01811106C010920B0194
:103E40008AE091E022E03AC0853019F490931301A2
:103E500027C08630F9F480911A01813019F48CE181
:103E60009AE304C0823041F48AE09AE3909311010E
:103E70008093100122E126C0833051F4911108C0D3
:103E80008EE29AE3909311018093100124E01AC00E
:103E900020E018C0883079F0893031F49093150112
:103EA0008AE091E020E00AC021E08A3009F020E0B9
:103EB0008AE091E003C085E191E021E09093110157
:103EC0008093100180911E01811105C080911D0118
:103ED000821708F4282F209300011092120180917C
:103EE0000F0184FF31C0809100018F3F69F1C82F1D
:103EF000893008F0C8E08C1B80930001809101019B
:103F000098E8892780930101CC2391F0E09110017A
:103F1000F091110182E091E0DC0124912D93319622
:103F20002C2F280F2A13F9CFF0931101E0931001E1
:103F30006C2F82E091E0A1DDCC5FCC3019F08FEFE7
:103F400080930001C0930F01C30101963C01803BA7
:103F5000944029F4EDEFF9E3E491EF3F81F4862DED
:103F60008C7411F0299801C0299AD99BDDCE8CE17F
:103F70001B9B8CE18150E1F782E08BBBD5CE219871
:103F80002998A8DE1092680010926C0037CDFFCF00
:0400000300003A00BF
:00000001FF
