:1000000003C003C003C003C003C003C003C003C0D8
:1000800013C02AC029C028C027C026C025C024C04C
:1000900023C022C021C020C01FC01EC01DC01CC064
:1000A0001BC01AC019C018C00000000000000000EA
:1000B0000000000000000000000000000000000040
:1000C000000000000000000011241FBECFEFD2E0AE
:1000D000DEBFCDBFBBD3D3C3D3CF009731F0E0EAAF
:1000E000FFE03197F1F70197F8CF0895807C20E089
:1000F00030E0FC01E20FF31F45915491F901EE7FCE
:10010000E60FF71F518340832E5F3F4F20343105A8
:1001100081F70895FC01E07C93E090935700E89507
:1001200007B600FCFDCF0895CF93DF939B01205CC1
:100130003F4FDB01FC01E61BF70BEA0FFB1FCD91E4
:10014000DD9141E00E0140935700E8951124A2177C
:10015000B30781F725E0FC0120935700E89507B627
:1001600000FCFDCFDF91CF910895CF93DF93CDB702
:10017000DEB7C054D1090FB6F894DEBF0FBECDBFB5
:10018000BE016F5F7F4F80E090E0B0DFFE013196EF
:10019000CE018F5B9F4F2FEF3FEF21933193E817F5
:1001A000F907C9F780E090E0B5DFBE016F5F7F4FD0
:1001B00080E090E0B9DFC05CDF4F0FB6F894DEBF9F
:1001C0000FBECDBFDF91CF910895EF92FF920F93B5
:1001D0001F93CF93DF93CDB7DEB7C054D1090FB6CD
:1001E000F894DEBF0FBECDBF00E010E045E0003464
:1001F00014070CF03BC020E030E0F901E00FF11FE4
:10020000E45FFC4FC9019595879548E0EC34F4070D
:100210006CF445915491880F991FE1E0F0E0EC0FE8
:10022000FD1FE80FF91F518340830CC0880F991FF1
:10023000E1E0F0E0EC0FFD1FE80FF91F8FEF9FEFFB
:10024000918380832E5F3F4F20343105B1F67801D2
:1002500080ECE81A85EEF80AC7015CDFBE016F5F2B
:100260007F4FC70161DF005C1F4FC0CFC05CDF4F15
:100270000FB6F894DEBF0FBECDBFDF91CF911F91B7
:100280000F91FF90EF9008950F931F93CF93DF93FB
:10029000CDB7DEB7C054D1090FB6F894DEBF0FBE9C
:1002A000CDBFFE013196CE018F5B9F4F8F012FE1B5
:1002B0003DEC21933193E817F907C9F780E090E00E
:1002C00029DFB80180E090E02FDFC05CDF4F0FB680
:1002D000F894DEBF0FBECDBFDF91CF911F910F917C
:1002E0000895CF9384B1836084B92998CAEF81E0DF
:1002F00090E0F3DE299A81E090E0EFDE2998C1508A
:10030000B1F7CF910895E0E0F0E0099415C01A3CF0
:100310004005931109021200010100803209040016
:1003200000000000000012011001FF000008D016BC
:10033000530705020000000111241FBECFEFD2E0D9
:10034000CDBFDEBF21E0A0E0B1E001C01D92AC3224
:10035000B207E1F730C1DC0180E090E041E050EA13
:10036000609530E009C02D9182279795879510F010
:1003700084279527305EC8F36F5FA8F38D939D9314
:100380000895CF93DF93CC27C3954A9BE9F74A9B07
:100390000BC04A9B09C04A9B07C04A9B05C04A9BA9
:1003A00003C04A9B01C089C00F92C0910E01DD2796
:1003B000CA5EDE4F0F9065E54A9B03C00F920F9017
:1003C000E6CF0F930F910F9320E040E10F9109B119
:1003D000067002FB27F93F9350E03BE039C01670EE
:1003E00040642F77012F5F5F1EC0406819B11670FF
:1003F0002F7752501FC0406409B12F770670D1F19A
:100400005F5F00C023C0406219B12F77167091F171
:100410005F5F00C025C006701027515012F45D5F69
:100420000000115027952C3F19B1C8F6167001270E
:10043000015027952C3FC8F64227499309B1067011
:1004400010274F73115027952C3FA8F646954695D7
:1004500019B1167079F00127015027952C3F98F6B5
:100460006B5A60F3315009B1B0F600C014E01BBB09
:1004700000271DC03B503195C31BD04014E01BBB6F
:100480000881033CE9F00B34D9F020910C0119816B
:10049000110F1213EDCF093611F10D3211F0013E9B
:1004A00039F7CAE01BB312FD02C0CA95D9F7009311
:1004B00014013F91CBB3C2FD67CFDF91CF91089577
:1004C000209114012223A9F310911201112309F59F
:1004D00034300AF13093120120930D011CC00091B9
:1004E00012010130B4F40AE530910F0134FD14C05B
:1004F00000930F01C1E0D1E013C0052710E000C058
:1005000000000BB91AC0052710E0221F1DC010E023
:1005100021C04AE502C032ED432FC4E1D0E032E011
:100520001AB116605A9A0BB11AB956E020E865E381
:1005300020FF05270BB9279517951C3FF0F6669508
:10054000B8F7B1F720FF05270BB9279517951C3F82
:10055000D0F62795179517FF052700001C3F0BB90C
:10056000B0F629913A9519F7097F10911301110FEF
:10057000C651D0400BB911F010930C0114E01BBB15
:1005800004601AB1197F402F497F54E05A95F1F762
:100590000BB91AB94BB98DCFF201309711F48FE135
:1005A0009DEC21E00C0120935700E8951124CF0128
:1005B00002962C010895A89580916000886180932F
:1005C000600010926000529A88EB9BE0E0E9F1E055
:1005D0003197F1F70197D1F752988AE580930F018F
:1005E0008FEF8093000180916D00826080936D0099
:1005F00080916800846080936800509A712C312C3F
:10060000412C512CC5EDD4E184E699B1967009F0E6
:1006100084E6815021F41092130110920C01DA9BB0
:1006200004C0AFDE84E08BBB02C0219771F7A895B0
:10063000832D823069F4E0E4FAE1E054F10983E0CB
:1006400080935700E8953097C1F7412C512C12C088
:10065000803459F4F2013297E0342AE1F20750F481
:1006600085E080935700E89505C0843019F4CD2BC0
:1006700011F4E2C0312C80911201835087FD8EC0AD
:1006800090910D019D3209F087C0883009F084C037
:1006900083EC809301018AE580930F01809117011B
:1006A000807690911801882381F1712C911108C0F6
:1006B00082E49AE1909311018093100186E061C079
:1006C000913069F441145104F1F080911B01807C58
:1006D000482E50901C0181E187BFE89514C09330EB
:1006E00081F48091190190911A0156DF80911B01CC
:1006F00090911C0151DF842D8F7329F490E4392EE1
:1007000040C09F73392E80E03CC080911901109247
:100710000A01911106C010920B012AE031E082E03B
:100720002CC0953019F48093130119C0963089F4C8
:1007300080911A01813019F48AE59AE104C082306F
:1007400011F788E49AE1909311018093100182E1FE
:1007500018C0983079F0993031F4809315012AE06F
:1007600031E080E00AC081E09A3009F080E02AE0C0
:1007700031E003C025E131E081E0309311012093A5
:10078000100190911E01911105C090911D019817C3
:1007900008F4892F809300011092120180910F01BB
:1007A00084FF2FC0809100018F3F59F1C82F8930FD
:1007B00008F0C8E08C1B809300019091010188E84B
:1007C000892780930101CC2381F0E0911001F09101
:1007D0001101A2E0B1E08C2F94919D93319681504C
:1007E000D9F7F0931101E09310016C2F82E091E0B2
:1007F000B2DDCC5FCC3019F08FEF80930001C09355
:100800000F01C30101963C01803B944029F4EDE3C4
:10081000FAE1E491EF3F81F4862D8C7411F0589841
:1008200001C0589ADA9BEECE8CE14A9B8CE1815054
:10083000E1F784E08BBBE6CE58981AB810926800B6
:1008400010926D0084B78EBB14BE5ECD85B115B815
:1008500084B18FEF84B98AEF90E03FDC84B114B8A3
:100860008AEF90E03ADCF89480DCAFDC0DDD39DD16
:100870008DE39AE14FDC47DD80E090E00895F89445
:02088000FFCFA8
:040000030000008079
:00000001FF
