:1000000003C003C003C003C003C003C003C003C0D8
:100080000EC025C024C023C022C021C020C01FC074
:100090001EC01DC01CC01BC01AC019C018C0000063
:1000A0000000000000000000000000000000000050
:1000B000000000000000000000000000000011240B
:1000C0001FBECFE5D2E0DEBFCDBFDCD3F4C3D8CFB7
:1000D000009731F0E0EAFFE03197F1F70197F8CFB0
:1000E0000895807C20E030E0FC01E20FF31F459191
:1000F0005491F901EE7FE60FF71F518340832E5F85
:100100003F4F2034310581F70895FC01E07C93E0F6
:1001100090935700E89507B600FCFDCF0895CF9364
:10012000DF939B01205C3F4FDB01FC01E61BF70BDB
:10013000EA0FFB1FCD91DD9141E00E014093570086
:10014000E8951124A217B30781F725E0FC0120935D
:100150005700E89507B600FCFDCFDF91CF910895D9
:10016000CF93DF93CDB7DEB7C054D1090FB6F89463
:10017000DEBF0FBECDBFBE016F5F7F4F80E090E05E
:10018000B0DFFE013196CE018F5B9F4F2FEF3FEF27
:1001900021933193E817F907C9F780E090E0B5DFC4
:1001A000BE016F5F7F4F80E090E0B9DFC05CDF4F42
:1001B0000FB6F894DEBF0FBECDBFDF91CF9108958B
:1001C000EF92FF920F931F93CF93DF93CDB7DEB7DC
:1001D000C054D1090FB6F894DEBF0FBECDBF00E00A
:1001E00010E045E0023814070CF03BC020E030E09E
:1001F000F901E00FF11FEE5FFC4FC901959587955E
:1002000048E0E438F4076CF445915491880F991F45
:10021000E1E0F0E0EC0FFD1FE80FF91F5183408390
:100220000CC0880F991FE1E0F0E0EC0FFD1FE80F14
:10023000F91F8FEF9FEF918380832E5F3F4F203414
:100240003105B1F6780180ECE81A85EEF80AC701AD
:100250005CDFBE016F5F7F4FC70161DF005C1F4F36
:10026000C0CFC05CDF4F0FB6F894DEBF0FBECDBF6E
:10027000DF91CF911F910F91FF90EF9008950F9311
:100280001F93CF93DF93CDB7DEB7C054D1090FB61C
:10029000F894DEBF0FBECDBFFE013196CE018F5B5D
:1002A0009F4F8F012FE13DEC21933193E817F90720
:1002B000C9F780E090E029DFB80180E090E02FDF0F
:1002C000C05CDF4F0FB6F894DEBF0FBECDBFDF912D
:1002D000CF911F910F910895CF9387B3836087BB10
:1002E000C198CAEF81E090E0F3DEC19A81E090E02E
:1002F000EFDEC198C150B1F7CF910895E0E0F0E092
:10030000099417C01A3A4005930B09021200010123
:1003100000803209040000000000000012011001FA
:10032000FF000008D0165307050200000001040377
:100330000904112420E0A0E6B0E001C01D92AC3811
:10034000B207E1F75BC1A82FB92F80E090E041E050
:1003500050EA609530E009C02D91822797958795E6
:1003600010F084279527305EC8F36F5FA8F30895D7
:10037000EADF8D939D930895CF93CFB7CF93DF930B
:10038000C395B39BE9F7B39B0BC0B39B09C0B39B69
:1003900007C0B39B05C0B39B03C0B39B01C08FC014
:1003A0006F93C0916E00DD27CA58DF4F2F9365E52C
:1003B000B39B03C02F916F91E6CF0F931F934F9381
:1003C00020E040E15F9306B3087103FB27F93F93F8
:1003D00050E03BE039C0187140642F77012F5F5F18
:1003E0001EC0406816B318712F7752501FC040646A
:1003F00006B32F770871D1F15F5F00C023C0406260
:1004000016B32F77187191F15F5F00C025C0087196
:100410001027515012F45D5F0000115027952C3FBA
:1004200016B3C8F618710127015027952C3FC8F65E
:100430004227499306B3087110274F73115027952F
:100440002C3FA8F64695469516B3187179F001270A
:10045000015027952C3F98F66B5A60F3315006B344
:10046000B0F600C010E21ABF00271DC03B50319506
:10047000C31BD04010E21ABF0881033C29F10B34A2
:1004800019F120916C001981110F1213EDCF09366B
:1004900051F10D3211F0013E39F7CAE01AB715FDDE
:1004A00002C0CA95D9F7009374003F915F914F91B4
:1004B0001F910F912F916F91CAB7C5FD61CFDF9149
:1004C000CF91CFBFCF91089520917400222369F37B
:1004D00010917200112309F534300AF13093720043
:1004E00020936D001CC0009172000130B4F40AE545
:1004F00030916F0034FD14C000936F00C1E6D0E06E
:1005000013C0052710E000C0000008BB1AC0052773
:1005100010E0221F1DC010E021C04AE502C032EDEC
:10052000432FC4E1D0E032E017B31861C39A08B397
:1005300017BB58E120E865E320FF052708BB279596
:1005400017951C3FF0F66695B8F7B1F720FF052721
:1005500008BB279517951C3FD0F62795179517FFD1
:10056000052700001C3F08BBB0F629913A9519F702
:10057000077E10917300110FC651D04008BB11F0D7
:1005800010936C0010E21ABF086017B3177E402F5B
:10059000477E54E05A95F1F708BB17BB48BB85CF9F
:1005A0002FEFB0E8A0E04AE0B1BF00008DE79CE08B
:1005B000B399FECFB39BFECF0197B399FDCF97FFC1
:1005C00003C0BA1B819501C0BA0FA69539F4A0E407
:1005D00028F4281710F031B7282FA1E0415021F757
:1005E00031BF00000895F20121E00C012093570073
:1005F000E8951124C20102962C01089514BE88E1E9
:1006000081BD87E081BDBB9A88EB9BE0E0E9F1E02A
:100610003197F1F70197D1F7BB988AE580936F0086
:100620008FEF80936000AC9A8BB780628BBF712C88
:10063000312C412C512CC5EDD4E114E686B38871E0
:1006400009F014E6115029F41092730010926C0016
:10065000A7DF0AB605FE04C08FDE80E28ABF02C0B3
:10066000219761F7A895832D823069F4E0E4FAE1DF
:10067000E054F10983E080935700E8953097C1F783
:10068000412C512C12C0803459F4F2013297E034DD
:100690002AE1F20750F485E080935700E89505C001
:1006A000843019F4CD2B11F4E9C0312C8091720003
:1006B000835087FD9AC090916D009D3209F093C0E0
:1006C000883009F090C083EC809361008AE58093C4
:1006D0006F0080917700807690917800882381F177
:1006E000712C911108C082E49AE19093710080937B
:1006F000700086E06DC0913069F441145104F1F04E
:1007000080917B00807C482E50907C0081E187BFE7
:10071000E89514C0933081F48091790090917A002B
:1007200062DF80917B0090917C005DDF842D8F7370
:1007300029F490E4392E4CC09F73392E80E048C0D4
:100740008091790010926A00911106C010926B009E
:100750002AE630E082E038C0953019F480937300C7
:1007600025C09630E9F490917A00913019F48AE529
:100770009AE104C0923041F488E49AE190937100C8
:100780008093700082E124C09330C1F68111D6CFEE
:100790008CE69AE1909371008093700084E018C019
:1007A000983079F0993031F4809375002AE630E082
:1007B00080E00AC081E09A3009F080E02AE630E06B
:1007C00003C025E730E081E0309371002093700092
:1007D00090917E00911105C090917D00981708F4CA
:1007E000892F809360001092720080916F0084FFC7
:1007F0002FC0809160008F3F59F1C82F893008F0D9
:10080000C8E08C1B809360009091610088E8892784
:1008100080936100CC2381F0E0917000F091710031
:10082000A2E6B0E08C2F94919D9331968150D9F738
:10083000F0937100E09370006C2F82E690E098DDF9
:10084000CC5FCC3019F08FEF80936000C0936F00C5
:10085000C30101963C01803B944029F4EDE3FAE1A9
:10086000E491EF3F59F40AB605FEE5CE8CE1B39B67
:100870008CE18150E1F780E28ABFDDCE17BA1BBE62
:1008800015BA3DCD88B318BA87B38FEF87BB8AEF0F
:1008900090E01EDC87B317BA8AEF90E019DCF89479
:1008A0005FDC8EDCECDC18DD8DE39AE12EDC26DDEE
:0A08B00080E090E00895F894FFCF77
:040000030000008079
:00000001FF
