:1000000003C003C003C003C003C003C003C003C0D8
:1000800033C0000049C0000047C0000045C0000068
:1000900043C0000041C000003FC000003DC0000060
:1000A0003BC0000039C0000037C0000035C0000070
:1000B00033C0000031C000002FC000002DC0000080
:1000C0002BC0000029C0000027C0000025C0000090
:1000D00023C0000021C000001FC000001DC00000A0
:1000E0001BC0000019C0000000000000000000005C
:1000F0000000000000000000000000000000000000
:10010000000000000000000011241FBECFEFD8E067
:10011000DEBFCDBF1CD434C4B3CF009731F0E0EACA
:10012000FFE03197F1F70197F8CF0895807820E04C
:1001300030E0FC01E20FF31F45915491F901EE7F8D
:10014000E60FF71F518340832E5F3F4F2038310564
:1001500081F70895FC01E07893E090935700E895CB
:1001600007B600FCFDCF0895CF93DF939B01205885
:100170003F4FDB01FC01E61BF70BEA0FFB1FCD91A4
:10018000DD9141E00E0140935700E8951124A2173C
:10019000B30781F725E0FC0120935700E89507B6E7
:1001A00000FCFDCFDF91CF910895CF93DF93CDB7C2
:1001B000DEB7C058D1090FB6F894DEBF0FBECDBF71
:1001C000BE016F5F7F4F80E090E0B0DFFE013196AF
:1001D000CE018F579F4F2FEF3FEF21933193E817B9
:1001E000F907C9F780E090E0B5DFBE016F5F7F4F90
:1001F00080E090E0B9DFC058DF4F0FB6F894DEBF63
:100200000FBECDBFDF91CF910895EF92FF920F9374
:100210001F93CF93DF93CDB7DEB7C058D1090FB688
:10022000F894DEBF0FBECDBF00E010E046E0063020
:1002300014070CF039C020E030E0F901E00FF11FA5
:10024000E85BFC4FC9019595879549E0EE34F407CA
:100250006CF445915491880F991FE1E0F0E0EC0FA8
:10026000FD1FE80FF91F518340830CC0880F991FB1
:10027000E1E0F0E0EC0FFD1FE80FF91F8FEF9FEFBB
:10028000918380832E5F3F4F20383105B1F678018E
:1002900086E8F81AC7015EDFBE016F5F7F4FC701B6
:1002A00063DF00581F4FC2CFC058DF4F0FB6F8941E
:1002B000DEBF0FBECDBFDF91CF911F910F91FF9099
:1002C000EF9008950F931F93CF93DF93CDB7DEB7D1
:1002D000C058D1090FB6F894DEBF0FBECDBFFE01E6
:1002E0003196CE018F579F4F8F012FEF3CEF219317
:1002F0003193E817F907C9F780E090E02BDFB801E8
:1003000080E090E031DFC058DF4F0FB6F894DEBFD9
:100310000FBECDBFDF91CF911F910F910895CF9365
:1003200084B1836084B92998CAEF81E090E0F5DE5A
:10033000299A81E090E0F1DE2998C150B1F7CF9180
:100340000895E0E0F0E0099418C0000079FA800513
:10035000950F09021200010100803209040000001B
:100360000000000012011001FF000008D016530722
:100370000502000000010403090411241FBECFEF91
:10038000D8E0CDBFDEBF11E0A0E0B1E0E8EBFFE7D1
:1003900002C005900D92AE34B107D9F721E0AEE46A
:1003A000B1E001C01D92AA37B207E1F742C1A82F00
:1003B000B92F80E090E041E050EA609530E009C05C
:1003C0002D9182279795879510F084279527305E89
:1003D000C8F36F5FA8F30895EADF8D939D930895A6
:1003E000CF93CFB7CF93DF93C395319BE9F7319B81
:1003F0000BC0319B09C0319B07C0319B05C0319BAD
:1004000003C0319B01C08FC06F93C0915C01DD2799
:10041000CC59DE4F2F9365E5319B03C02F916F912F
:10042000E6CF0F931F934F9320E040E15F9306B117
:10043000067001FB27F93F9350E03BE039C016708E
:1004400040642F77012F5F5F1EC0406816B11670A1
:100450002F7752501FC0406406B12F770670D1F13C
:100460005F5F00C023C0406216B12F77167091F114
:100470005F5F00C025C006701027515012F45D5F09
:100480000000115027952C3F16B1C8F616700127B1
:10049000015027952C3FC8F64227499306B10670B4
:1004A00010274F73115027952C3FA8F64695469577
:1004B00016B1167079F00127015027952C3F98F658
:1004C0006B5A60F3315006B1B0F600C012E01BBBAE
:1004D00000271DC03B503195C31BD04012E01BBB11
:1004E0000881033C29F10B3419F120915A0119813B
:1004F000110F1213EDCF093651F10D3211F0013EFB
:1005000039F7CAE01BB311FD02C0CA95D9F70093B1
:1005100062013F915F914F911F910F912F916F91C8
:10052000CBB3C1FD61CFDF91CF91CFBFCF91089504
:1005300020916201222369F310916001112309F5D2
:1005400034300AF13093600120935B011CC00091AC
:1005500060010130B4F40AE530915D0134FD14C04E
:1005600000935D01CFE4D1E013C0052710E000C087
:10057000000008B91AC0052710E0221F1DC010E0B6
:1005800021C04AE502C032ED432FC4E1D0E032E0A1
:1005900017B11660419A08B117B956E020E865E333
:1005A00020FF052708B9279517951C3FF0F666959B
:1005B000B8F7B1F720FF052708B9279517951C3F15
:1005C000D0F62795179517FF052700001C3F08B99F
:1005D000B0F629913A9519F7097F10916101110F31
:1005E000C651D04008B911F010935A0112E01BBB5C
:1005F000026017B1197F402F497F54E05A95F1F7F7
:1006000008B917B948B985CFF201309731F0E23017
:10061000F10529F480E09DE302C08CE094E921E03B
:100620000C0120935700E8951124CF0102962C016C
:100630000895A89514BE8091600088618093600041
:1006400010926000399A88EB9BE0E0E9F1E0319785
:10065000F1F70197D1F739988AE580935D018FEF23
:1006600080934E0180916C00846080936C00809137
:100670006800826080936800519A712C312C412C63
:10068000512CC5EDD4E184E696B1967009F084E66C
:10069000815021F41092610110925A01D99B04C03B
:1006A0009FDE82E08BBB02C0219771F7A895832D56
:1006B000823081F4E0E0FAE7E058F10983E08093CA
:1006C0005700E89507B600FCFDCF3097A9F7412CFD
:1006D000512C15C0803471F4F2013297E1152AE7EC
:1006E000F20768F485E080935700E89507B600FCB0
:1006F000FDCF05C0843019F4CD2B11F4EEC0312CA0
:1007000080916001835087FD9AC090915B019D327A
:1007100009F093C0883009F090C083EC80934F01BA
:100720008AE580935D0180916501807690916601F4
:10073000882381F1712C911108C084E09AE790938D
:100740005F0180935E0186E06DC0913069F44114D1
:100750005104F1F0809169018078482E50906A012F
:1007600081E187BFE89514C0933081F480916701DF
:100770009091680149DF8091690190916A0144DF9D
:10078000842D8F7729F490E4392E4CC09F73392E35
:1007900080E048C08091670110925801911106C015
:1007A0001092590128E531E082E038C0953019F403
:1007B0008093610125C09630E9F4909168019130F1
:1007C00019F48CE19AE704C0923041F48AE09AE788
:1007D00090935F0180935E0182E124C09330C1F663
:1007E0008111D6CF8EE29AE790935F0180935E01EC
:1007F00084E018C0983079F0993031F48093630127
:1008000028E531E080E00AC081E09A3009F080E01C
:1008100028E531E003C023E631E081E030935F0159
:1008200020935E0190916C01911105C090916B0134
:10083000981708F4892F80934E01109260018091DF
:100840005D0184FF2FC080914E018F3F59F1C82F69
:10085000893008F0C8E08C1B80934E0190914F01C5
:1008600088E8892780934F01CC2381F0E0915E01D5
:10087000F0915F01A0E5B1E08C2F94919D933196AA
:100880008150D9F7F0935F01E0935E016C2F80E512
:1008900091E0A2DDCC5FCC3019F08FEF80934E0158
:1008A000C0935D01C30101963C018039914029F458
:1008B000EDEFF9E7E491EF3F81F4862D8C7411F0B0
:1008C000599801C0599AD99BDCCE8CE1319B8CE1BF
:1008D0008150E1F782E08BBBD4CE5198599880E0EB
:1008E00091E08752914011F417B801C039981092E5
:1008F000680010926C0081E180935700E89522CD4A
:10090000282A28766F6C6174696C652075696E742D
:10091000385F74202A2928283078303729202B2066
:1009200030783230292900282A28766F6C61746962
:100930006C652075696E74385F74202A2928283008
:1009400078304129202B203078323029290085B198
:1009500015B884B18FEF84B98AEF90E0DEDB84B103
:1009600014B88AEF90E0D9DBF8941FDC4EDCAADCE7
:10097000D6DC8DEF99E7EEDBE4DC80E090E00895D3
:04098000F894FFCF19
:040000030000008079
:00000001FF
