:1000000003C003C003C003C003C003C003C003C0D8
:10008000B5C3DFC3DEC3DDC3DCC3DBC3DAC3D9C39F
:10009000D8C3D7C3D6C3D5C3D4C3D3C3D2C317C061
:1000A00016C04CC014C009021200010100803209C0
:1000B000040000000000000012011001FF00000811
:1000C000D01653070A01000000010403090411249B
:1000D0001FBECFE5D2E0CDBFDEBF00EB0F9307E040
:1000E0000F9310E0A0E6B0E0E8ECFFE102C005905D
:1000F0000D92A636B107D9F720E0A6E6B0E001C020
:100100001D92AB39B207E1F7ECC1A82FB92F80E0FF
:1001100090E041E050EA609530E009C02D918227DF
:100120009795879510F084279527305EC8F36F5F09
:10013000A8F30895EADF8D939D930895CF93CFB7E9
:10014000CF93C0915F02C03B21F4C0915E02C730E3
:1001500021F0CF91CFBFCF91A1CFCC27C395B39B37
:10016000E9F7B39B0BC0B39B09C0B39B07C0B39B1C
:1001700005C0B39B03C0B39B01C0D3C00F92DF93F4
:10018000C0917E00DD27CB57DF4F012EB39B03C00C
:10019000DF910F90E6CF2F930F931F934F932FEF85
:1001A0004F6F06B303FB20F95F933F9350E03BE0B2
:1001B00065C016B30126502953FDC89556B30127D3
:1001C00003FB25F92F7306B3B1F05027102713FB5B
:1001D00026F906B22230F0F000C016B3012703FB67
:1001E00027F90126502906B22430E8F54F77206818
:1001F00016B30000F6CF50274F7D206206B2102FB5
:10020000000000C006B300265029102713FB26F972
:1002100006B2E2CF4F7B06B3206400C0DACF0126DE
:100220005029187106B269F14E7F2160012F16B373
:1002300028C0002650294D7F06B22260102F29C009
:10024000012650294B7F06B22460012F2DC016B322
:1002500001265029477F2860000006B22EC04F7E3D
:1002600006B3206130C0422706B3499300265029C7
:10027000102706B24FEF13FB20F9297F16B379F24E
:10028000187159F10126502906B2012703FB21F903
:10029000237F06B371F2002650293150D0F006B208
:1002A000102713FB22F9277E16B351F2012650299D
:1002B000012703FB06B223F92F7C49F2000006B3A5
:1002C000102713FB24F90026502906B22F7939F2A2
:1002D00070CF10E21ABF002717C03B503195C31BE7
:1002E000D04010E21ABF0881033CF9F00B34E9F06A
:1002F00020917C001981110F1213EDCF093651F1B5
:100300000D3211F0013E39F7009383003F915F9168
:100310004F911F910F912F91DF910F90CAB7C5FD9B
:100320001DCFCF91CFBFCF9118952091830022236D
:1003300069F310918100112321F5343022F13093BB
:10034000810020937D0010917E003BE0311B3093B3
:100350007E0019C00091810001309CF40AE53091C3
:10036000600034FD11C000936000C1E7D0E010C010
:10037000052710E000C021C0052710E0C89508BB84
:1003800014C03AE501C032ED032EC0E0D0E032E007
:1003900017B31861C39A08B317BB58E120E84FEFB1
:1003A00020FF052708BB279517951C3F28F700005D
:1003B0004552B0F720FF0527279508BB17951C3F2E
:1003C000B8F629913A9561F7077E10918200110FD6
:1003D00008BBC250D04011F010937C0010E21ABF4D
:1003E000086017B3177E402F477E54E05A95F1F707
:1003F00008BB17BB48BB8ACFF8942FEFB0E8A0E446
:100400004AE0B1BF000081EE9CE0B399FECFB39B00
:10041000FECF0197B399FDCF97FF03C0BA1B81951B
:1004200001C0BA0FA69529F4281710F031B7282F6C
:10043000A1E0415031F731BF000078940895F8945D
:10044000E0916A00F0916B00329785E0809357004D
:10045000E89578940895E0916A00F0916B003097E8
:1004600029F490936D0080936C0007C0E430F1058F
:1004700039F490936F0080936E008FE39CEC1CC066
:10048000EC3728E1F20739F480916C0090916D000F
:100490008E539C4F11C0EE3728E1F20739F480915A
:1004A0006E0090916F008D539C4F06C0EA3728E193
:1004B000F20711F481B790E02FB7F894309721F448
:1004C00031E130935700E89531E00C01309357004B
:1004D000E89511243296F0936B00E0936A002FBFE9
:1004E000089514BE88E10FB6F89481BD11BC0FBE0B
:1004F000BB9A88E893E1ECE9F1E03197F1F70197D5
:10050000D1F7BB98AC9A8BB780628BBF789400917F
:100510008100035007FDBAC080917E00CCE0D0E09E
:10052000C81BD109CB57DF4F80917D008D3209F078
:100530008EC0083009F0A8C083EC809371008AE572
:1005400080936000109269002881922F90768981B3
:10055000992319F110926700811108C082E690E09A
:100560009093800080937F0014E067C0813051F445
:100570008C819D8190936B0080936A0027FD58C009
:100580001FEF57C090916800823011F4916001C054
:1005900094609093680010E050C09A8110927A00A5
:1005A000811106C010927B008AE790E012E03BC008
:1005B000853019F4909382002CC0863009F58B8128
:1005C000813019F48AE998E104C0823041F488E866
:1005D00098E19093800080937F0012E10DC08330FA
:1005E00051F4911108C08CEA98E1909380008093B7
:1005F0007F0014E001C010E080E4809369001DC01A
:10060000883059F0893019F49093840002C08A3000
:1006100039F08AE790E010E006C084E890E002C07C
:100620008AE790E011E09093800080937F0005C0FE
:100630001E8180E88093690007C08F81811104C00A
:100640008E81811708F4182F109361001DC08091CE
:10065000690087FF19C080916A0090916B00803813
:10066000984128F080916A008F7339F00DC089910C
:100670009991F1DE025079F7F5CF809168008260A0
:100680008093680010926100109281008091600058
:1006900084FF43C0809161008F3F09F43EC0082F62
:1006A000893008F008E0801B809361008091710020
:1006B00098E8892780937100002319F1E0917F0069
:1006C000F09180008091690086FF0BC0A2E7B0E046
:1006D00084918D93319682E790E0800F8A13F8CF52
:1006E0000CC0CF01A2E7B0E0FC012191CF012D9316
:1006F00022E730E0200F2A13F7CFF0938000E09339
:100700007F00602F82E790E015DD0C5F0C3019F060
:100710008FEF809361000093600084E196B398713D
:1007200031F48150D9F71092820010927C0001E0E0
:10073000811100E080917000801739F0011103C031
:100740001092670059DE009370008CE991E00197E8
:10075000F1F70091680000FF17C0F894E0E8F8E1B5
:10076000E054F10983E080935700E8953097C1F792
:1007700010926B0010926A0088E0F82E8FEF9FEFC6
:100780006ADEFA94D9F75BDE01FF05C08AE390E2E6
:100790000197F1F754DE02FF12C082E291EA01975D
:1007A000F1F7F894BB9A1BBE15BA10925F02EAE704
:1007B000F8E1E4918E2F81508E3F88F012C01092A4
:1007C00068008091660090916700019690936700A1
:1007D0008093660080369A4E08F499CEDECFE1BF52
:1007E00000005BCC2ACF5AFF187A400800000000B6
:1007F00000000000000000000000000000000000F9
:1008000000000000000000000000000011241FBED6
:10081000CFE5D2E0DEBFCDBF10E0A0E6B0E0E8EA71
:10082000FAE002C005900D92A236B107D9F710E0A8
:10083000A2E6B0E001C01D92A236B107E1F71CD1DB
:1008400031C11ECC05C0EDE1F0E13197F1F7019720
:100850000097C9F70895AC01407C80E090E0FC016E
:10086000E40FF51F25913491FC01EE7FE60FF71F91
:100870002083318302968034910589F70895FC0125
:10088000E07C83E080935700E89507B600FCFDCF3D
:100890000895CF93DF93EC01AB01DB0120E030E062
:1008A000FE01E41BF50BEA0FFB1F8D919D9161E0AA
:1008B0000C0160935700E89511242F5F3F4F2032C1
:1008C000310571F785E0FE0180935700E89507B682
:1008D00000FCFDCFDF91CF910895CF93DF93CDB78B
:1008E000DEB7C054D0400FB6F894DEBF0FBECDBF08
:1008F0008091600090916100969587958150904419
:10090000FE0131969E012F5B3F4F81939193E21739
:10091000F307D9F780E090E0B2DF80E090E0BE011D
:100920006F5F7F4FB6DFC05CDF4F0FB6F894DEBF5E
:100930000FBECDBFDF91CF9108950F931F93CF933B
:10094000DF93CDB7DEB7C054D0400FB6F894DEBF0A
:100950000FBECDBF00E010E040C080E090E0F801A5
:10096000E256FF4FE80FF91F9C013595279547E0A8
:10097000EC3EF40770F0F901EE0FFF1F21E030E0CC
:100980002C0F3D1FE20FF31F2FEF3FEF318320832A
:100990000DC045915491F901EE0FFF1F21E030E0A9
:1009A0002C0F3D1FE20FF31F4083518302968034CA
:1009B0009105A9F68091600090916100800F911FD0
:1009C0005EDF8091600090916100800F911FBE01F9
:1009D0006F5F7F4F5EDF005C1F4F37E0003813070B
:1009E00009F0BBCFC05CDF4F0FB6F894DEBF0FBE7F
:1009F000CDBFDF91CF911F910F910895CF93DF93DA
:100A0000CDB7DEB7C054D0400FB6F894DEBF0FBEEE
:100A1000CDBF80E090E0BE016F5F7F4F1CDF8FEFA6
:100A20009FEF9A83898380E090E029DF80E090E067
:100A3000BE016F5F7F4F2DDFC05CDF4F0FB6F894B4
:100A4000DEBF0FBECDBFDF91CF910895CF9387B3A7
:100A5000836087BBC198CAEF81E090E0F3DEC19A62
:100A600081E090E0EFDEC198C150B1F7CF910895D9
:100A7000E0E0F0E00995089588B318BA87B38FEFE6
:100A800087BB8AEF90E0DEDE87B317BA8AEF90E08B
:100A9000D9DEF894B3DF51DF20DFD8DFE9DF80E073
:080AA00090E00895F894FFCFE7
:020AA8008018B4
:040000030000008079
:00000001FF
