:1000000003C003C003C003C003C003C003C003C0D8
:1000800022C444C443C442C441C440C43FC43EC467
:100090003DC43CC43BC43AC439C438C437C422C08C
:1000A00040C06CC03EC03DC03CC03BC03AC039C03F
:1000B00038C037C036C035C034C033C0040309046B
:1000C00012011001FF000008D016530705010000BF
:1000D0000001090212000101008032090400000041
:1000E0000000000011241FBECFE5D2E0DEBFCDBF6F
:1000F00000EB0F9307E00F9310E0A0E6B0E0E2EE14
:10010000FFE102C005900D92A636B107D9F710E0C5
:10011000A6E6B0E001C01D92AC39B107E1F7DFD12E
:10012000CDC3BDCFA82FB92F80E090E041E050EAC9
:10013000609530E009C02D9182279795879510F042
:1001400084279527305EC8F36F5FA8F30895EADF30
:100150008D939D930895A6E088279927AA9569F025
:100160000197E1F3B399FCCFB39BFECF81E09927D0
:10017000A6B3019611F0A871D9F70895CF93CFB720
:10018000CF93C0915F02C03B21F4C0915E02C730A3
:1001900021F0CF91CFBFCF9181CFCC27C395B39B17
:1001A000E9F7B39B0BC0B39B09C0B39B07C0B39BDC
:1001B00005C0B39B03C0B39B01C0D3C00F92DF93B4
:1001C000C0917F00DD27CA57DF4F012EB39B03C0CC
:1001D000DF910F90E6CF2F930F931F934F932FEF45
:1001E0004F6F06B303FB20F95F933F9350E03BE072
:1001F00065C016B30126502953FDC89556B3012793
:1002000003FB25F92F7306B3B1F05027102713FB1A
:1002100026F906B22230F0F000C016B3012703FB26
:1002200027F90126502906B22430E8F54F772068D7
:1002300016B30000F6CF50274F7D206206B2102F74
:10024000000000C006B300265029102713FB26F932
:1002500006B2E2CF4F7B06B3206400C0DACF01269E
:100260005029187106B269F14E7F2160012F16B333
:1002700028C0002650294D7F06B22260102F29C0C9
:10028000012650294B7F06B22460012F2DC016B3E2
:1002900001265029477F2860000006B22EC04F7EFD
:1002A00006B3206130C0422706B349930026502987
:1002B000102706B24FEF13FB20F9297F16B379F20E
:1002C000187159F10126502906B2012703FB21F9C3
:1002D000237F06B371F2002650293150D0F006B2C8
:1002E000102713FB22F9277E16B351F2012650295D
:1002F000012703FB06B223F92F7C49F2000006B365
:10030000102713FB24F90026502906B22F7939F261
:1003100070CF10E21ABF002717C03B503195C31BA6
:10032000D04010E21ABF0881033CF9F00B34E9F029
:1003300020917D001981110F1213EDCF093651F173
:100340000D3211F0013E39F7009384003F915F9127
:100350004F911F910F912F91DF910F90CAB7C5FD5B
:100360001DCFCF91CFBFCF9118952091840022232C
:1003700069F310918200112321F5343022F130937A
:10038000820020937E0010917F003BE0311B309370
:100390007F0019C00091820001309CF40AE5309181
:1003A000600034FD11C000936000C2E7D0E010C0CF
:1003B000052710E000C021C0052710E0C89508BB44
:1003C00014C03AE501C032ED032EC0E0D0E032E0C7
:1003D00017B31861C39A08B317BB58E120E84FEF71
:1003E00020FF052708BB279517951C3F28F700001D
:1003F0004552B0F720FF0527279508BB17951C3FEE
:10040000B8F629913A9561F7077E10918300110F94
:1004100008BBC250D04011F010937D0010E21ABF0B
:10042000086017B3177E402F477E54E05A95F1F7C6
:1004300008BB17BB48BB8ACF81E080936900F89462
:10044000E0917000F0917100329785E08093570041
:10045000E89507B600FCFDCF789408959C01E091E3
:100460007000F0917100309749F1E430F105B1F07E
:1004700087E1EC3BF80739F420916C0030916D0076
:100480002E5D3B4F0DC087E1EE3BF80749F420910C
:100490006E0030916F002D5D3B4F02C02FED3BECA5
:1004A000F89481E0090180935700E895112478942D
:1004B0003296F0937100E0937000089581E180938B
:1004C0005700E895EBCF8FEF9FEFC8DF809170006A
:1004D000909171008F739070892BA9F7ADCF1F9306
:1004E000CF93DF9388E10FB6F89481BD11BC0FBEA6
:1004F000E0E0F0E0859194918F5D9B4C39F4E4E06D
:10050000F0E0859194918F5D9B4C09F0DCDF1092B7
:10051000710010927000AC9A8BB780628BBFBB9A4F
:1005200088E893E1ECE9F1E03197F1F70197D1F731
:10053000BB98789410918200135017FDD4C080911D
:100540007F00CCE0D0E0C81BD109CA57DF4F8091B3
:100550007E008D3209F091C0183009F0C2C083ECE2
:10056000809372008AE58093600010926B0028816E
:10057000822F80769981882329F11092670010924A
:100580006600992341F482E690E090938100809385
:10059000800024E068C0913051F48C819D8190935B
:1005A00071008093700027FD59C09FEF58C0809163
:1005B0006800923011F4816001C08460809368000B
:1005C00020E051C08A8110927B00992331F410926F
:1005D0007C008BE790E022E03CC0953019F48093DA
:1005E000830034C0963011F58B81813019F482EE8E
:1005F00097E104C0823041F484EF97E19093810049
:100600008093800022E10EC0833059F48A818823D0
:1006100041F48EED97E1909381008093800024E077
:1006200001C020E080E480936B001DC0983019F475
:1006300085E890E009C0993019F48093850006C0E0
:100640009A3021F48BE790E021E003C08BE790E043
:1006500020E0909381008093800005C09E8180E817
:1006600080936B0007C08F81882319F49E819217B5
:1006700008F0922F9093610034C080916B0087FF47
:1006800030C08091700090917100009739F488819A
:10069000998190936D0080936C000DC0843091051A
:1006A00039F48881998190936F0080936E0003C024
:1006B000805C974138F488819981D0DE125011F026
:1006C0002296DFCF80917000909171008F739070AF
:1006D000892B39F4809168008260809368001092C1
:1006E0006100109282008091600084FF3CC0809184
:1006F00061008F3FC1F1182F893008F018E0811B8D
:10070000809361008091720098E88927809372003D
:100710001123E1F0E0918000F091810080916B0065
:1007200086FF09C0912FA3E7B0E084918D933196A5
:100730009150D9F707C0912FA3E7B0E081918D9335
:100740009150E1F7F0938100E093800083E790E01F
:10075000612FFDDC612F6C5F6C3019F08FEF80939F
:1007600061006093600094E186B3887131F4915028
:10077000D9F71092830010927D0010E0992309F4BC
:1007800011E080916A00811739F0112319F4F8946F
:1007900056D0789410936A008CE991E00197F1F7B4
:1007A0008091660090916700019690936700809316
:1007B000660080916800182F80FF14C0F894E0EC68
:1007C000F7E1E054F04083E080935700E89507B6E6
:1007D00000FCFDCF3097A9F71092710010927000C5
:1007E00072DE789411FF0FC08AE390E20197F1F76F
:1007F00080917000909171008F739070892B11F02F
:1008000062DE01C019DE12FD0AC0109268008091FC
:100810006600909167008055934C08F48BCE82E27D
:1008200091EA0197F1F7F8941BBE15BA10925F0296
:1008300010925E0232CCDF91CF911F910895FF920A
:100840000F931F93CF93DF9380E8F82E00E0C0E072
:10085000D0E0102F1F0D11BF7EDC29E084339207FA
:100860000CF0102FF6942196C830D10511F0012F0D
:10087000F0CF115011BF1F5F012FEC0110C06BDCD6
:100880008453994097FF03C0909581959F4F8C1793
:100890009D0714F401B7EC0181B78F5F81BF21B7C9
:1008A00030E0812F90E001968217930744F701BF53
:1008B000DF91CF911F910F91FF900895F894FFCF92
:1008C0005AFF17BC400800000000000000000000B4
:1008D0000000000000000000000000000000000018
:1008E00000000000000011241FBECFE5D2E0DEBFF3
:1008F000CDBF10E0A0E6B0E0EEE8FBE002C005905E
:100900000D92A236B107D9F720D13FC1B9CB05C0AE
:10091000EDE1F0E13197F1F701970097C9F70895FC
:10092000AC01407C20E030E0F901E40FF51F859137
:100930009491F901EE7FE60FF71F918380832E5F7C
:100940003F4F2034310581F70895FC01E07C83E0BE
:1009500080935700E89507B600FCFDCF0895CF932C
:10096000DF93EC01A0E0B0E0AD014C0F5D1FFB0197
:10097000EA0FFB1F8081918121E0FA010C01209395
:100980005700E89511241296A034B10569F785E067
:10099000FE0180935700E89507B600FCFDCFDF917C
:1009A000CF910895DF93CF93CDB7DEB7C054D04039
:1009B0000FB6F894DEBF0FBECDBF2091600030911E
:1009C00061003695279521503044FE0131962193E0
:1009D0003193CE018F5B9F4FE817F907C1F780E095
:1009E00090E0B3DF80E090E0BE016F5F7F4FB7DF44
:1009F000C05CDF4F0FB6F894DEBF0FBECDBFCF9106
:100A0000DF910895EF92FF920F931F93DF93CF939F
:100A1000CDB7DEB7C054D0400FB6F894DEBF0FBEDE
:100A2000CDBF00E010E035C09B01359527957E01D4
:100A30000894E11CF11C88E0A63CB80738F0220FAE
:100A4000331FE20EF31E8FEF9FEF07C0FD0185916C
:100A50009491220F331FE20EF31EF70191838083DE
:100A60006E5F7F4F129660347105F1F680916000E1
:100A700090916100800F911F68DF809160009091DC
:100A80006100800F911FBE016F5F7F4F68DF005CC8
:100A90001F4FF8E000341F0731F0D801A256BF4FB6
:100AA00060E070E0C1CFC05CDF4F0FB6F894DEBFEE
:100AB0000FBECDBFCF91DF911F910F91FF90EF90AF
:100AC0000895DF93CF93CDB7DEB7C054D0400FB6B3
:100AD000F894DEBF0FBECDBF80E090E0BE016F5F37
:100AE0007F4F1EDF80E090E0019680329105E1F7B4
:100AF0008FEF9FEF9A83898380E090E026DF80E08C
:100B000090E0BE016F5F7F4F2ADFC05CDF4F0FB602
:100B1000F894DEBF0FBECDBFCF91DF91089587B3AC
:100B2000836087BBC19820E08DE190E1FC013197A3
:100B3000F1F7C19A0197F1F7C1982F5F2A3FA1F70A
:100B40000895E0E0F0E00995089588B318BA87B3F6
:100B50008FEF87BB8AEF90E0EDE1F0E13197F1F79D
:100B60000197D1F787B317BA8AEF90E0EDE1F0E192
:100B70003197F1F70197D1F7F894A3DF43DF12DF44
:0E0B8000CEDFDFDF80E090E00895F894FFCF35
:020B8E00C0178E
:040000030000008079
:00000001FF
