:1017000039C057C083C055C054C053C052C051C027
:1017100050C04FC04EC04DC04CC04BC04AC0040367
:10172000090422036300720065006100740069000F
:101730007600650070006F006E0079002E00630077
:101740006F006D000C03750042006F006F007400A5
:1017500012011001FF000008C016DC0501010102A2
:10176000000109021200010100803209040000009A
:101770000000000011241FBECFE5D2E0DEBFCDBFC8
:1017800000EB0F9307E00F9310E0A0E6B0E0EAE96A
:10179000FFE102C005900D92A636B107D9F710E01F
:1017A000A6E6B0E001C01D92AB39B107E1F7E6D182
:1017B000F2C3A6CFA82FB92F80E090E041E050EA15
:1017C000609530E009C02D9182279795879510F09C
:1017D00084279527305EC8F36F5FA8F30895EADF8A
:1017E0008D939D930895A6E088279927AA9569F07F
:1017F0000197E1F3B399FCCFB39BFECF81E099272A
:10180000A6B3019611F0A871D9F70895CF93CFB779
:10181000CF93C0915F02C03B21F4C0915E02C730FC
:1018200021F0CF91CFBFCF916ACFCC27C395B39B87
:10183000E9F7B39B0BC0B39B09C0B39B07C0B39B35
:1018400005C0B39B03C0B39B01C0D3C00F92DF930D
:10185000C0917E00DD27CB57DF4F012EB39B03C025
:10186000DF910F90E6CF2F930F931F934F932FEF9E
:101870004F6F06B303FB20F95F933F9350E03BE0CB
:1018800065C016B30126502953FDC89556B30127EC
:1018900003FB25F92F7306B3B1F05027102713FB74
:1018A00026F906B22230F0F000C016B3012703FB80
:1018B00027F90126502906B22430E8F54F77206831
:1018C00016B30000F6CF50274F7D206206B2102FCE
:1018D000000000C006B300265029102713FB26F98C
:1018E00006B2E2CF4F7B06B3206400C0DACF0126F8
:1018F0005029187106B269F14E7F2160012F16B38D
:1019000028C0002650294D7F06B22260102F29C022
:10191000012650294B7F06B22460012F2DC016B33B
:1019200001265029477F2860000006B22EC04F7E56
:1019300006B3206130C0422706B3499300265029E0
:10194000102706B24FEF13FB20F9297F16B379F267
:10195000187159F10126502906B2012703FB21F91C
:10196000237F06B371F2002650293150D0F006B221
:10197000102713FB22F9277E16B351F201265029B6
:10198000012703FB06B223F92F7C49F2000006B3BE
:10199000102713FB24F90026502906B22F7939F2BB
:1019A00070CF10E21ABF002717C03B503195C31B00
:1019B000D04010E21ABF0881033CF9F00B34E9F083
:1019C00020917C001981110F1213EDCF093651F1CE
:1019D0000D3211F0013E39F7009383003F915F9182
:1019E0004F911F910F912F91DF910F90CAB7C5FDB5
:1019F0001DCFCF91CFBFCF91189520918300222387
:101A000069F310918100112321F5343022F13093D4
:101A1000810020937D0010917E003BE0311B3093CC
:101A20007E0019C00091810001309CF40AE53091DC
:101A3000600034FD11C000936000C1E7D0E010C029
:101A4000052710E000C021C0052710E0C89508BB9D
:101A500014C03AE501C032ED032EC0E0D0E032E020
:101A600017B31861C39A08B317BB58E120E84FEFCA
:101A700020FF052708BB279517951C3F28F7000076
:101A80004552B0F720FF0527279508BB17951C3F47
:101A9000B8F629913A9561F7077E10918200110FEF
:101AA00008BBC250D04011F010937C0010E21ABF66
:101AB000086017B3177E402F477E54E05A95F1F720
:101AC00008BB17BB48BB8ACF81E080936700F894BE
:101AD000E0916F00F0917000329785E0809357009D
:101AE000E89507B600FCFDCF789408959C01E0913D
:101AF0006F00F0917000309749F1E430F105B1F0DA
:101B000086E1EC3FF80739F420916B0030916C00CE
:101B10002E573B4F0DC086E1EE3FF80749F4209168
:101B20006D0030916E002D573B4F02C02FE73BEC0C
:101B3000F89481E0090180935700E8951124789486
:101B40003296F0937000E0936F00089581E18093E6
:101B50005700E895EBCFCF93DF93C0916F00D09102
:101B60007000CF73D0708FEF9FEFC0DF2296C0342C
:101B7000D105CCF3A9DFDF91CF91089588E10FB6AD
:101B8000F89481BD11BC0FBEE0E0F0E08591949126
:101B90008F579B4C39F4E4E0F0E0859194918F5796
:101BA0009B4C09F0D8DF1092700010926F00AC9A35
:101BB0008BB780628BBFBB9A88E893E1ECE9F1E0D8
:101BC0003197F1F70197D1F7BB987894EE24FF2471
:101BD00010918100135017FDEDC080917E00CCE084
:101BE000D0E0C81BD109CB57DF4F80917D008D32EB
:101BF00009F0A4C0183009F0DBC083EC80937100B9
:101C00008AE580936000109269002881822F807697
:101C10009981882321F1992341F482E690E0909301
:101C2000800080937F0024E07FC0913069F48A8136
:101C300080936A008C819D819093700080936F00E7
:101C400027FD6DC09FEF6CC080916600923011F44B
:101C5000816001C084608093660020E065C08A8155
:101C600010927A00992331F410927B008AE790E079
:101C700022E050C0953019F48093820048C096301D
:101C8000B1F58B81813019F480E597E104C0823091
:101C900041F482E697E19093800080937F0022E1F7
:101CA00022C08330F9F48A81882341F48EE197E1E0
:101CB0009093800080937F0024E015C0813041F430
:101CC00082E297E19093800080937F0022E20BC034
:101CD000823041F484E497E19093800080937F0008
:101CE0002CE001C020E080E4809369001DC09830A2
:101CF00019F484E890E009C0993019F480938400C5
:101D000006C09A3021F48AE790E021E003C08AE718
:101D100090E020E09093800080937F0005C09E813A
:101D200080E88093690007C08F81882319F49E8121
:101D3000921708F0922F909361003AC08091690049
:101D400087FF36C080916A00811B80936A00809172
:101D50006F0090917000009739F488819981909379
:101D60006C0080936B0012C08430910539F4888137
:101D7000998190936E0080936D0008C08A5F9641B0
:101D800028F081E180935700E89507C08881998108
:101D9000ADDE125011F02296DACF80916A008823CE
:101DA00039F4809166008260809366001092610031
:101DB000109281008091600084FF3CC0809161009E
:101DC0008F3FC1F1182F893008F018E0811B8093F4
:101DD00061008091710098E8892780937100112338
:101DE000E1F0E0917F00F09180008091690086FF32
:101DF00009C0912FA2E7B0E084918D933196915064
:101E0000D9F707C0912FA2E7B0E081918D9391504F
:101E1000E1F7F0938000E0937F0082E790E0612F8C
:101E2000DEDC612F6C5F6C3019F08FEF8093610006
:101E30006093600094E186B3887131F49150D9F7D2
:101E40001092820010927C0010E0992309F411E0B6
:101E500080916800811739F0112319F4F8945CD04F
:101E60007894109368008CE991E00197F1F78091E4
:101E70006600882319F0EE24FF2403C00894E11CB7
:101E8000F11C182F80FF14C0F894E0E0F7E1E05453
:101E9000F04083E080935700E89507B600FCFDCF43
:101EA0003097A9F71092700010926F0054DE78946A
:101EB00011FF0FC08AE390E20197F1F780916F0064
:101EC000909170008F739070892B11F044DE01C0E7
:101ED000FBDD12FD05C081E5E81683ECF806C8F0CD
:101EE00082E291EA0197F1F7F8941BBE15BA80914E
:101EF0006700882311F408C02EDE80916F00909156
:101F0000700080509741C0F310925F0210925E0201
:101F1000F5CB109266005CCEFF920F931F93CF9388
:101F2000DF9380E8F82E00E0C0E0D0E0102F1F0D16
:101F300011BF59DC29E0843392070CF0102FF6947E
:101F40002196C830D10511F0012FF0CF115011BFEB
:101F50001F5F012FEC0110C046DC8453994097FFAE
:101F600003C0909581959F4F8C179D0714F401B77E
:101F7000EC0181B78F5F81BF21B730E0812F90E006
:101F800001968217930744F701BFDF91CF911F910C
:0A1F90000F91FF900895F894FFCF21
:061F9A005AFF16FA401484
:0400000300001700E2
:00000001FF
