:101500004CC06AC083C068C067C066C065C064C0A4
:1015100063C062C061C060C05FC05EC05DC00403E4
:10152000090412036F0062006400650076002E005B
:1015300061007400100348004900440042006F003D
:101540006F0074001201100100000008C016DF05D2
:10155000000101020001090222000101008032099C
:101560000400000103000000092101010001222103
:1015700000070581030800C80600FF0901A1011545
:101580000026FF007508850195060900B202018555
:101590000295830900B20201C00011241FBECFE5ED
:1015A000D2E0DEBFCDBF00EB0F9307E00F9310E05A
:1015B000A0E6B0E0EEE7FDE102C005900D92AA368C
:1015C000B107D9F710E0AAE6B0E001C01D92AD392D
:1015D000B107E1F7EDD1D1C393CFA82FB92F80E0A8
:1015E00090E041E050EA609530E009C02D918227FB
:1015F0009795879510F084279527305EC8F36F5F25
:10160000A8F30895EADF8D939D930895CF93CFB704
:10161000CF93C0915F02C03B21F4C0915E02C730FE
:1016200021F0CF91CFBFCF916ACFCC27C395B39B89
:10163000E9F7B39B0BC0B39B09C0B39B07C0B39B37
:1016400005C0B39B03C0B39B01C0D5C00F92DF930D
:10165000C0918000DD27C957DF4F012EB39B03C027
:10166000DF910F90E6CF2F930F931F934F932FEFA0
:101670004F6F06B303FB20F95F933F9350E03BE0CD
:1016800065C016B30126502953FDC89556B30127EE
:1016900003FB25F92F7306B3B1F05027102713FB76
:1016A00026F906B22230F0F000C016B3012703FB82
:1016B00027F90126502906B22430E8F54F77206833
:1016C00016B30000F6CF50274F7D206206B2102FD0
:1016D000000000C006B300265029102713FB26F98E
:1016E00006B2E2CF4F7B06B3206400C0DACF0126FA
:1016F0005029187106B269F14E7F2160012F16B38F
:1017000028C0002650294D7F06B22260102F29C024
:10171000012650294B7F06B22460012F2DC016B33D
:1017200001265029477F2860000006B22EC04F7E58
:1017300006B3206130C0422706B3499300265029E2
:10174000102706B24FEF13FB20F9297F16B379F269
:10175000187159F10126502906B2012703FB21F91E
:10176000237F06B371F2002650293150D0F006B223
:10177000102713FB22F9277E16B351F201265029B8
:10178000012703FB06B223F92F7C49F2000006B3C0
:10179000102713FB24F90026502906B22F7939F2BD
:1017A00070CF10E21ABF002719C03B503195C31B00
:1017B000D04010E21ABF0881033C09F10B34F9F064
:1017C00020917E001981110F1213EDCF4A81441F21
:1017D000093651F10D3211F0013E29F700938500D1
:1017E0003F915F914F911F910F912F91DF910F903A
:1017F000CAB7C5FD1BCFCF91CFBFCF911895209110
:101800008500222369F310918300112331F53430D0
:1018100032F13093830020937F00109180003BE0F1
:10182000311B309380001BC0009183000130ACF469
:101830000AE54F7091F43091600034FD11C00093BF
:101840006000C3E7D0E010C0052710E000C021C051
:10185000052710E0C89508BB14C03AE501C032ED79
:10186000032EC0E0D0E032E017B31861C39A08B38A
:1018700017BB58E120E84FEF20FF052708BB27954D
:1018800017951C3F28F700004552B0F720FF0527A9
:10189000279508BB17951C3FB8F629913A9561F733
:1018A000077E10918400110F08BBC250D04011F088
:1018B00010937E0010E21ABF086017B3177E402F06
:1018C000477E54E05A95F1F708BB17BB48BB88CF59
:1018D000F894E0916A00F0916B00329785E0809374
:1018E0005700E89507B600FCFDCF78940895209145
:1018F0006A0030916B002115310509F441C0243094
:101900003105B1F044E12C3F340739F480916F0088
:10191000909170008E579A4F0DC044E12E3F3407CE
:1019200049F480917100909172008D579A4F02C0D6
:101930008FE79AECF894E0916A00F0916B0021E057
:101940000C0120935700E8951124789420916A00A7
:1019500030916B00F901459154914817590749F0AE
:101960008FEF4F3F580729F080916C008160809382
:101970006C002E5F3F4F30936B0020936A000895F8
:1019800081E180935700E895D3CFCF93DF93C09147
:101990006A00D0916B00CF73D0708FEF9FEFA7DFFD
:1019A0002296C034D105CCF393DFDF91CF91089517
:1019B000DF93CF930F92CDB7DEB788E10FB6F894DF
:1019C00081BD11BC0FBE10926B0010926A00AC9AE0
:1019D0008BB780628BBFBB9A8FE49DE2A9E18150F7
:1019E0009040A040E1F700C00000BB987894EE243E
:1019F000FF2480918300282F235027FD19C1909147
:101A00008000ECE0F0E0E91BF109E957FF4F90910D
:101A10007F009D3209F0B1C0283009F007C183EC86
:101A2000809373008AE58093600010926D0090812E
:101A3000292F207681812223E9F0893081F4828167
:101A4000823039F481E080936E0097FD87C02FEFDC
:101A500086C080916C00846080936C008CC1813062
:101A600009F089C182E690E0909382008093810022
:101A700027E079C0928110927C00882331F4109283
:101A80007D008CE790E022E064C0853019F49093EB
:101A9000840055C0863009F049C08381813019F433
:101AA00084E495E11AC0823041F486E595E1909393
:101AB00082008093810022E235C08330F1F49923C3
:101AC00041F48EE195E1909382008093810024E0BF
:101AD00029C0913041F482E295E190938200809395
:101AE000810022E11FC09230E1F484E395E19093FC
:101AF00082008093810020E115C0813241F488E6A4
:101B000095E1909382008093810029E00BC082329E
:101B100041F488E795E1909382008093810021E26F
:101B200001C020E080E480936D001DC0883059F032
:101B3000893019F49093860002C08A3039F08CE71E
:101B400090E020E006C086E890E002C08CE790E0DC
:101B500021E0909382008093810005C0268180E877
:101B600080936D0007C08781882321F486818217C6
:101B700008F4282F2093610059C090916D0097FFC1
:101B800055C090916E00913061F43181928134960C
:101B9000282F275030936A0090936B0082E0809347
:101BA0006E008F0180916A0090916B00009749F45C
:101BB000D8018D919C9111979093700080936F0044
:101BC00014C08430910541F4F80180819181909393
:101BD00072008093710009C0F4E18A3F9F0728F0EA
:101BE00081E180935700E89512C0D8018D919D91B5
:101BF0008D0129837CDE80916A0090916B000296B2
:101C000090936B0080936A002981225059F680914D
:101C10006A0090916B008F739070009739F08091FB
:101C20006C00826080936C001092610010928300BF
:101C30008091600084FF47C0809161008F3F09F46C
:101C400042C0082F893008F008E0801B80936100B3
:101C50008091730098E8892780937300002339F1FD
:101C6000E0918100F091820090916D00802F815071
:101C700096FF0CC090E08B589F4FA4E7B0E02491F2
:101C80002D933196A817B907D1F70DC09F0190E0A9
:101C90008B589F4FA4E7B0E0F90141919F014D930C
:101CA000A817B907C9F7F0938200E093810084E791
:101CB00090E0602FA7DC0C5F0C3019F08FEF809361
:101CC00061000093600084E196B3987131F4815013
:101CD000D9F71092840010927E008CE991E0019770
:101CE000F1F7000080916C00882321F40894E11C36
:101CF000F11C02C0EE24FF2480FF0EC0F894E09196
:101D00006A00F0916B00329783E080935700E8956A
:101D100007B600FCFDCF789480916C0081FF11C064
:101D2000A9E3B0E21197F1F700C0000080916A00CA
:101D300090916B008F739070009711F026DE01C0B8
:101D4000C7DD80916C0082FD05C0B1E5EB16B3ECF8
:101D5000FB0670F0E1E2F1EA3197F1F700C0000014
:101D6000F8941BBE15BA10925F0210925E02C6CBA9
:0E1D700010926C003ECE20E0F6CEF894FFCF2D
:0A1D7E005AFF014000FA14000000B3
:0400000300001500E4
:00000001FF
