:1017400022C040C06CC03EC03DC03CC03BC03AC09F
:1017500039C038C037C036C035C034C033C00403C8
:10176000090412011001FF000008D01653070201FE
:10177000000000010902120001010080320904008A
:1017800000000000000011241FBECFE5D2E0DEBF44
:10179000CDBF00EB0F9307E00F9310E0A0E6B0E0A1
:1017A000E6E8FFE102C005900D92A636B107D9F731
:1017B00010E0A6E6B0E001C01D92AB39B107E1F739
:1017C000E6D1DFC3BDCFA82FB92F80E090E041E084
:1017D00050EA609530E009C02D9182279795879552
:1017E00010F084279527305EC8F36F5FA8F3089543
:1017F000EADF8D939D930895A6E088279927AA95FF
:1018000069F00197E1F3B399FCCFB39BFECF81E080
:101810009927A6B3019611F0A871D9F70895CF932F
:10182000CFB7CF93C0915F02C03B21F4C0915E025D
:10183000C73021F0CF91CFBFCF9181CFCC27C395B7
:10184000B39BE9F7B39B0BC0B39B09C0B39B07C025
:10185000B39B05C0B39B03C0B39B01C0D3C00F9221
:10186000DF93C0917E00DD27CB57DF4F012EB39B66
:1018700003C0DF910F90E6CF2F930F931F934F93E9
:101880002FEF4F6F06B303FB20F95F933F9350E0B8
:101890003BE065C016B30126502953FDC89556B3E9
:1018A000012703FB25F92F7306B3B1F0502710274A
:1018B00013FB26F906B22230F0F000C016B3012760
:1018C00003FB27F90126502906B22430E8F54F77AB
:1018D000206816B30000F6CF50274F7D206206B275
:1018E000102F000000C006B300265029102713FB5C
:1018F00026F906B2E2CF4F7B06B3206400C0DACFF0
:1019000001265029187106B269F14E7F2160012F1E
:1019100016B328C0002650294D7F06B22260102F32
:1019200029C0012650294B7F06B22460012F2DC00B
:1019300016B301265029477F2860000006B22EC04A
:101940004F7E06B3206130C0422706B3499300267C
:101950005029102706B24FEF13FB20F9297F16B349
:1019600079F2187159F10126502906B2012703FBBB
:1019700021F9237F06B371F2002650293150D0F0AF
:1019800006B2102713FB22F9277E16B351F2012667
:101990005029012703FB06B223F92F7C49F20000EE
:1019A00006B3102713FB24F90026502906B22F791D
:1019B00039F270CF10E21ABF002717C03B503195A3
:1019C000C31BD04010E21ABF0881033CF9F00B346E
:1019D000E9F020917C001981110F1213EDCF093627
:1019E00051F10D3211F0013E39F7009383003F9120
:1019F0005F914F911F910F912F91DF910F90CAB777
:101A0000C5FD1DCFCF91CFBFCF91189520918300F9
:101A1000222369F310918100112321F5343022F142
:101A20003093810020937D0010917E003BE0311BBC
:101A300030937E0019C00091810001309CF40AE5CA
:101A40003091600034FD11C000936000C1E7D0E028
:101A500010C0052710E000C021C0052710E0C89580
:101A600008BB14C03AE501C032ED032EC0E0D0E05F
:101A700032E017B31861C39A08B317BB58E120E8E6
:101A80004FEF20FF052708BB279517951C3F28F728
:101A900000004552B0F720FF0527279508BB179592
:101AA0001C3FB8F629913A9561F7077E10918200A4
:101AB000110F08BBC250D04011F010937C0010E20F
:101AC0001ABF086017B3177E402F477E54E05A951F
:101AD000F1F708BB17BB48BB8ACF81E08093670052
:101AE000F894E0916F00F0917000329785E0809358
:101AF0005700E89507B600FCFDCF789408959C0147
:101B0000E0916F00F0917000309749F1E430F105F9
:101B1000B1F087E1EC33F80739F420916B00309194
:101B20006C002E593B4F0DC087E1EE33F80749F4A6
:101B300020916D0030916E002D593B4F02C02FE96E
:101B40003BECF89481E0090180935700E89511245B
:101B500078943296F0937000E0936F00089581E1DD
:101B600080935700E895EBCFCF93DF93C0916F0040
:101B7000D0917000CF73D0708FEF9FEFC0DF2296AF
:101B8000C034D105CCF3A9DFDF91CF91089588E16E
:101B90000FB6F89481BD11BC0FBEE0E0F0E0859176
:101BA00094918F599B4C39F4E4E0F0E08591949145
:101BB0008F599B4C09F0D8DF1092700010926F0083
:101BC000AC9A8BB780628BBFBB9A88E893E1ECE953
:101BD000F1E03197F1F70197D1F7BB987894EE24B3
:101BE000FF2410918100135017FDD9C080917E0011
:101BF000CCE0D0E0C81BD109CB57DF4F80917D00EE
:101C00008D3209F090C0183009F0C7C083EC809382
:101C100071008AE580936000109269002881822F0C
:101C200080769981882321F1992341F482E690E01E
:101C30009093800080937F0024E06BC0913069F422
:101C40008A8180936A008C819D819093700080933B
:101C50006F0027FD59C09FEF58C0809166009230F9
:101C600011F4816001C084608093660020E051C05F
:101C70008A8110927A00992331F410927B008AE7CE
:101C800090E022E03CC0953019F48093820034C08B
:101C9000963011F58B81813019F482E697E104C00A
:101CA000823041F484E797E19093800080937F0035
:101CB00022E10EC0833059F48A81882341F48EE5F5
:101CC00097E19093800080937F0024E001C020E0A2
:101CD00080E4809369001DC0983019F484E890E096
:101CE00009C0993019F48093840006C09A3021F419
:101CF0008AE790E021E003C08AE790E020E090933B
:101D0000800080937F0005C09E8180E880936900F9
:101D100007C08F81882319F49E81921708F0922FB3
:101D2000909361003AC08091690087FF36C080912E
:101D30006A00811B80936A0080916F00909170000F
:101D4000009739F48881998190936C0080936B009F
:101D500012C08430910539F48881998190936E0086
:101D600080936D0008C08A53974128F081E18093E9
:101D70005700E89507C088819981C1DE125011F0A3
:101D80002296DACF80916A00882339F48091660028
:101D900082608093660010926100109281008091B1
:101DA000600084FF3CC0809161008F3FC1F1182F1B
:101DB000893008F018E0811B8093610080917100E8
:101DC00098E88927809371001123E1F0E0917F006A
:101DD000F09180008091690086FF09C0912FA2E7F1
:101DE000B0E084918D9331969150D9F707C0912F2F
:101DF000A2E7B0E081918D939150E1F7F0938000DC
:101E0000E0937F0082E790E0612FF2DC612F6C5F4E
:101E10006C3019F08FEF809361006093600094E163
:101E200086B3887131F49150D9F7109282001092E4
:101E30007C0010E0992309F411E08091680081177B
:101E400039F0112319F4F8945DD078941093680058
:101E50008CE991E00197F1F780916600882319F0F1
:101E6000EE24FF2403C00894E11CF11C182F80FF0E
:101E700014C0F894E0E4F7E1E054F04083E080938C
:101E80005700E89507B600FCFDCF3097A9F71092F0
:101E9000700010926F0068DE789411FF0FC08AE323
:101EA00090E20197F1F780916F00909170008F732D
:101EB0009070892B11F058DE01C00FDE12FF12C0A6
:101EC00080916700882311F408C04EDE80916F0076
:101ED0009091700080549741C0F382E291EA01979B
:101EE000F1F708C01092660080E5E81683ECF8066A
:101EF00008F477CEF8941BBE15BA10925F021092C8
:101F00005E021CCCFF920F931F93CF93DF9380E868
:101F1000F82E00E0C0E0D0E0102F1F0D11BF6CDCE8
:101F200029E0843392070CF0102FF6942196C830E4
:101F3000D10511F0012FF0CF115011BF1F5F012FFC
:101F4000EC0110C059DC8453994097FF03C0909571
:101F500081959F4F8C179D0714F401B7EC0181B751
:101F60008F5F81BF21B730E0812F90E0019682170B
:101F7000930744F701BFDF91CF911F910F91FF901D
:061F80000895F894FFCF64
:061F86005AFF173A400863
:0400000300001740A2
:00000001FF
